{
  "_format": "hh-sol-artifact-1",
  "contractName": "Transactions",
  "sourceName": "contracts/Transactions.sol",
  "abi": [
    {
      "inputs": [
        {
          "internalType": "string",
          "name": "_tld",
          "type": "string"
        }
      ],
      "stateMutability": "nonpayable",
      "type": "constructor"
    },
    {
      "inputs": [],
      "name": "AlreadyRegistered",
      "type": "error"
    },
    {
      "inputs": [
        {
          "internalType": "string",
          "name": "name",
          "type": "string"
        }
      ],
      "name": "InvalidName",
      "type": "error"
    },
    {
      "inputs": [],
      "name": "Unauthorized",
      "type": "error"
    },
    {
      "inputs": [
        {
          "internalType": "address",
          "name": "",
          "type": "address"
        }
      ],
      "name": "addressToDomain",
      "outputs": [
        {
          "internalType": "string",
          "name": "",
          "type": "string"
        }
      ],
      "stateMutability": "view",
      "type": "function"
    },
    {
      "inputs": [
        {
          "internalType": "string",
          "name": "",
          "type": "string"
        }
      ],
      "name": "domains",
      "outputs": [
        {
          "internalType": "address",
          "name": "",
          "type": "address"
        }
      ],
      "stateMutability": "view",
      "type": "function"
    },
    {
      "inputs": [
        {
          "internalType": "string",
          "name": "name",
          "type": "string"
        }
      ],
      "name": "getAddress",
      "outputs": [
        {
          "internalType": "address",
          "name": "",
          "type": "address"
        }
      ],
      "stateMutability": "view",
      "type": "function"
    },
    {
      "inputs": [
        {
          "internalType": "string",
          "name": "domain",
          "type": "string"
        }
      ],
      "name": "getRecord",
      "outputs": [
        {
          "internalType": "string",
          "name": "",
          "type": "string"
        }
      ],
      "stateMutability": "view",
      "type": "function"
    },
    {
      "inputs": [
        {
          "internalType": "string",
          "name": "",
          "type": "string"
        }
      ],
      "name": "names",
      "outputs": [
        {
          "internalType": "string",
          "name": "",
          "type": "string"
        }
      ],
      "stateMutability": "view",
      "type": "function"
    },
    {
      "inputs": [
        {
          "internalType": "string",
          "name": "domain",
          "type": "string"
        },
        {
          "internalType": "string",
          "name": "userName",
          "type": "string"
        }
      ],
      "name": "register",
      "outputs": [],
      "stateMutability": "payable",
      "type": "function"
    },
    {
      "inputs": [
        {
          "internalType": "string",
          "name": "domain",
          "type": "string"
        },
        {
          "internalType": "string",
          "name": "yourName",
          "type": "string"
        }
      ],
      "name": "setRecord",
      "outputs": [],
      "stateMutability": "nonpayable",
      "type": "function"
    },
    {
      "inputs": [],
      "name": "tld",
      "outputs": [
        {
          "internalType": "string",
          "name": "",
          "type": "string"
        }
      ],
      "stateMutability": "view",
      "type": "function"
    },
    {
      "inputs": [
        {
          "internalType": "string",
          "name": "name",
          "type": "string"
        }
      ],
      "name": "valid",
      "outputs": [
        {
          "internalType": "bool",
          "name": "",
          "type": "bool"
        }
      ],
      "stateMutability": "pure",
      "type": "function"
    }
  ],
  "bytecode": "0x608060405234801561001057600080fd5b50610e1e806100206000396000f3fe608060405234801561001057600080fd5b50600436106100575760003560e01c806327506f531461005c5780632e7700f01461007a578063cc2d7ead14610098578063e6b972f5146100b4578063f2c298be146100e4575b600080fd5b610064610100565b6040516100719190610a91565b60405180910390f35b610082610343565b60405161008f9190610ad5565b60405180910390f35b6100b260048036038101906100ad9190610778565b61034c565b005b6100ce60048036038101906100c9919061074f565b61050e565b6040516100db9190610ab3565b60405180910390f35b6100fe60048036038101906100f9919061080b565b6105ae565b005b60606001805480602002602001604051908101604052809291908181526020016000905b8282101561033a57838290600052602060002090600602016040518060c00160405290816000820160009054906101000a900473ffffffffffffffffffffffffffffffffffffffff1673ffffffffffffffffffffffffffffffffffffffff1673ffffffffffffffffffffffffffffffffffffffff1681526020016001820160009054906101000a900473ffffffffffffffffffffffffffffffffffffffff1673ffffffffffffffffffffffffffffffffffffffff1673ffffffffffffffffffffffffffffffffffffffff1681526020016002820154815260200160038201805461020d90610cd3565b80601f016020809104026020016040519081016040528092919081815260200182805461023990610cd3565b80156102865780601f1061025b57610100808354040283529160200191610286565b820191906000526020600020905b81548152906001019060200180831161026957829003601f168201915b50505050508152602001600482015481526020016005820180546102a990610cd3565b80601f01602080910402602001604051908101604052809291908181526020018280546102d590610cd3565b80156103225780601f106102f757610100808354040283529160200191610322565b820191906000526020600020905b81548152906001019060200180831161030557829003601f168201915b50505050508152505081526020019060010190610124565b50505050905090565b60008054905090565b600160008082825461035e9190610bb7565b9250508190555060016040518060c001604052803373ffffffffffffffffffffffffffffffffffffffff1681526020018673ffffffffffffffffffffffffffffffffffffffff16815260200185815260200184815260200142815260200183815250908060018154018082558091505060019003906000526020600020906006020160009091909190915060008201518160000160006101000a81548173ffffffffffffffffffffffffffffffffffffffff021916908373ffffffffffffffffffffffffffffffffffffffff16021790555060208201518160010160006101000a81548173ffffffffffffffffffffffffffffffffffffffff021916908373ffffffffffffffffffffffffffffffffffffffff16021790555060408201518160020155606082015181600301908051906020019061049d929190610605565b506080820151816004015560a08201518160050190805190602001906104c4929190610605565b5050507f416cfa4330a4565f45c2fd2dd4826a83a37443aba2ce6f79477c7355afac35fa33858585428660405161050096959493929190610a22565b60405180910390a150505050565b6002602052806000526040600020600091509050805461052d90610cd3565b80601f016020809104026020016040519081016040528092919081815260200182805461055990610cd3565b80156105a65780601f1061057b576101008083540402835291602001916105a6565b820191906000526020600020905b81548152906001019060200180831161058957829003601f168201915b505050505081565b80600260003373ffffffffffffffffffffffffffffffffffffffff1673ffffffffffffffffffffffffffffffffffffffff1681526020019081526020016000209080519060200190610601929190610605565b5050565b82805461061190610cd3565b90600052602060002090601f016020900481019282610633576000855561067a565b82601f1061064c57805160ff191683800117855561067a565b8280016001018555821561067a579182015b8281111561067957825182559160200191906001019061065e565b5b509050610687919061068b565b5090565b5b808211156106a457600081600090555060010161068c565b5090565b60006106bb6106b684610b21565b610af0565b9050828152602081018484840111156106d357600080fd5b6106de848285610c91565b509392505050565b6000813590506106f581610da3565b92915050565b60008135905061070a81610dba565b92915050565b600082601f83011261072157600080fd5b81356107318482602086016106a8565b91505092915050565b60008135905061074981610dd1565b92915050565b60006020828403121561076157600080fd5b600061076f848285016106e6565b91505092915050565b6000806000806080858703121561078e57600080fd5b600061079c878288016106fb565b94505060206107ad8782880161073a565b935050604085013567ffffffffffffffff8111156107ca57600080fd5b6107d687828801610710565b925050606085013567ffffffffffffffff8111156107f357600080fd5b6107ff87828801610710565b91505092959194509250565b60006020828403121561081d57600080fd5b600082013567ffffffffffffffff81111561083757600080fd5b61084384828501610710565b91505092915050565b60006108588383610974565b905092915050565b61086981610c5b565b82525050565b61087881610c0d565b82525050565b61088781610c0d565b82525050565b600061089882610b61565b6108a28185610b84565b9350836020820285016108b485610b51565b8060005b858110156108f057848403895281516108d1858261084c565b94506108dc83610b77565b925060208a019950506001810190506108b8565b50829750879550505050505092915050565b600061090d82610b6c565b6109178185610b95565b9350610927818560208601610ca0565b61093081610d92565b840191505092915050565b600061094682610b6c565b6109508185610ba6565b9350610960818560208601610ca0565b61096981610d92565b840191505092915050565b600060c08301600083015161098c600086018261086f565b50602083015161099f602086018261086f565b5060408301516109b26040860182610a04565b50606083015184820360608601526109ca8282610902565b91505060808301516109df6080860182610a04565b5060a083015184820360a08601526109f78282610902565b9150508091505092915050565b610a0d81610c51565b82525050565b610a1c81610c51565b82525050565b600060c082019050610a37600083018961087e565b610a446020830188610860565b610a516040830187610a13565b8181036060830152610a63818661093b565b9050610a726080830185610a13565b81810360a0830152610a84818461093b565b9050979650505050505050565b60006020820190508181036000830152610aab818461088d565b905092915050565b60006020820190508181036000830152610acd818461093b565b905092915050565b6000602082019050610aea6000830184610a13565b92915050565b6000604051905081810181811067ffffffffffffffff82111715610b1757610b16610d63565b5b8060405250919050565b600067ffffffffffffffff821115610b3c57610b3b610d63565b5b601f19601f8301169050602081019050919050565b6000819050602082019050919050565b600081519050919050565b600081519050919050565b6000602082019050919050565b600082825260208201905092915050565b600082825260208201905092915050565b600082825260208201905092915050565b6000610bc282610c51565b9150610bcd83610c51565b9250827fffffffffffffffffffffffffffffffffffffffffffffffffffffffffffffffff03821115610c0257610c01610d05565b5b828201905092915050565b6000610c1882610c31565b9050919050565b6000610c2a82610c31565b9050919050565b600073ffffffffffffffffffffffffffffffffffffffff82169050919050565b6000819050919050565b6000610c6682610c6d565b9050919050565b6000610c7882610c7f565b9050919050565b6000610c8a82610c31565b9050919050565b82818337600083830152505050565b60005b83811015610cbe578082015181840152602081019050610ca3565b83811115610ccd576000848401525b50505050565b60006002820490506001821680610ceb57607f821691505b60208210811415610cff57610cfe610d34565b5b50919050565b7f4e487b7100000000000000000000000000000000000000000000000000000000600052601160045260246000fd5b7f4e487b7100000000000000000000000000000000000000000000000000000000600052602260045260246000fd5b7f4e487b7100000000000000000000000000000000000000000000000000000000600052604160045260246000fd5b6000601f19601f8301169050919050565b610dac81610c0d565b8114610db757600080fd5b50565b610dc381610c1f565b8114610dce57600080fd5b50565b610dda81610c51565b8114610de557600080fd5b5056fea26469706673582212204a5cdaadcdf5aed6006384e130c4c2c367496112361cf05a356bf6e97385a10064736f6c63430008000033",
  "linkReferences": {},
  "deployedLinkReferences": {}
}